{
  "contractName": "Voting",
  "abi": [
    {
      "inputs": [
        {
          "internalType": "bytes32[]",
          "name": "proposalNames",
          "type": "bytes32[]"
        }
      ],
      "stateMutability": "nonpayable",
      "type": "constructor"
    },
    {
      "inputs": [],
      "name": "chairperson",
      "outputs": [
        {
          "internalType": "address",
          "name": "",
          "type": "address"
        }
      ],
      "stateMutability": "view",
      "type": "function"
    },
    {
      "inputs": [
        {
          "internalType": "uint256",
          "name": "",
          "type": "uint256"
        }
      ],
      "name": "proposals",
      "outputs": [
        {
          "internalType": "bytes32",
          "name": "name",
          "type": "bytes32"
        },
        {
          "internalType": "uint256",
          "name": "voteCount",
          "type": "uint256"
        }
      ],
      "stateMutability": "view",
      "type": "function"
    },
    {
      "inputs": [],
      "name": "totalVotes",
      "outputs": [
        {
          "internalType": "uint256",
          "name": "",
          "type": "uint256"
        }
      ],
      "stateMutability": "view",
      "type": "function"
    },
    {
      "inputs": [
        {
          "internalType": "address",
          "name": "",
          "type": "address"
        },
        {
          "internalType": "uint256",
          "name": "",
          "type": "uint256"
        }
      ],
      "name": "voteHistories",
      "outputs": [
        {
          "internalType": "address",
          "name": "voterAddress",
          "type": "address"
        },
        {
          "internalType": "uint256",
          "name": "proposal",
          "type": "uint256"
        },
        {
          "internalType": "uint256",
          "name": "timestamp",
          "type": "uint256"
        }
      ],
      "stateMutability": "view",
      "type": "function"
    },
    {
      "inputs": [
        {
          "internalType": "address",
          "name": "",
          "type": "address"
        }
      ],
      "name": "voters",
      "outputs": [
        {
          "internalType": "uint256",
          "name": "weight",
          "type": "uint256"
        },
        {
          "internalType": "bool",
          "name": "voted",
          "type": "bool"
        },
        {
          "internalType": "address",
          "name": "delegate",
          "type": "address"
        },
        {
          "internalType": "uint256",
          "name": "vote",
          "type": "uint256"
        }
      ],
      "stateMutability": "view",
      "type": "function"
    },
    {
      "inputs": [
        {
          "internalType": "address",
          "name": "voter",
          "type": "address"
        }
      ],
      "name": "giveRightToVote",
      "outputs": [],
      "stateMutability": "nonpayable",
      "type": "function"
    },
    {
      "inputs": [
        {
          "internalType": "address",
          "name": "to",
          "type": "address"
        }
      ],
      "name": "delegate",
      "outputs": [],
      "stateMutability": "nonpayable",
      "type": "function"
    },
    {
      "inputs": [
        {
          "internalType": "uint256",
          "name": "proposal",
          "type": "uint256"
        }
      ],
      "name": "vote",
      "outputs": [],
      "stateMutability": "nonpayable",
      "type": "function"
    },
    {
      "inputs": [],
      "name": "winningProposal",
      "outputs": [
        {
          "internalType": "uint256",
          "name": "winningProposal_",
          "type": "uint256"
        }
      ],
      "stateMutability": "view",
      "type": "function"
    },
    {
      "inputs": [],
      "name": "winnerName",
      "outputs": [
        {
          "internalType": "bytes32",
          "name": "winnerName_",
          "type": "bytes32"
        }
      ],
      "stateMutability": "view",
      "type": "function"
    },
    {
      "inputs": [
        {
          "internalType": "address",
          "name": "voter",
          "type": "address"
        }
      ],
      "name": "hasRightToVote",
      "outputs": [
        {
          "internalType": "bool",
          "name": "",
          "type": "bool"
        }
      ],
      "stateMutability": "view",
      "type": "function"
    },
    {
      "inputs": [
        {
          "internalType": "address",
          "name": "voter",
          "type": "address"
        }
      ],
      "name": "hasVoted",
      "outputs": [
        {
          "internalType": "bool",
          "name": "",
          "type": "bool"
        }
      ],
      "stateMutability": "view",
      "type": "function"
    },
    {
      "inputs": [
        {
          "internalType": "address",
          "name": "voter",
          "type": "address"
        }
      ],
      "name": "getVotingHistory",
      "outputs": [
        {
          "components": [
            {
              "internalType": "address",
              "name": "voterAddress",
              "type": "address"
            },
            {
              "internalType": "uint256",
              "name": "proposal",
              "type": "uint256"
            },
            {
              "internalType": "uint256",
              "name": "timestamp",
              "type": "uint256"
            }
          ],
          "internalType": "struct Voting.VoteHistory[]",
          "name": "",
          "type": "tuple[]"
        }
      ],
      "stateMutability": "view",
      "type": "function"
    },
    {
      "inputs": [],
      "name": "getVotePercentages",
      "outputs": [
        {
          "internalType": "uint256[]",
          "name": "",
          "type": "uint256[]"
        }
      ],
      "stateMutability": "view",
      "type": "function"
    }
  ],
  "bytecode": "0x60806040523480156200001157600080fd5b50604051620010e5380380620010e58339810160408190526200003491620000ed565b600080546001600160a01b03191633178082556001600160a01b031681526001602081905260408220555b8151811015620000e557600260405180604001604052808484815181106200009757634e487b7160e01b600052603260045260246000fd5b60209081029190910181015182526000918101829052835460018181018655948352918190208351600290930201918255919091015191015580620000dc81620001b2565b9150506200005f565b5050620001f0565b6000602080838503121562000100578182fd5b82516001600160401b038082111562000117578384fd5b818501915085601f8301126200012b578384fd5b815181811115620001405762000140620001da565b83810260405185828201018181108582111715620001625762000162620001da565b604052828152858101935084860182860187018a101562000181578788fd5b8795505b83861015620001a557805185526001959095019493860193860162000185565b5098975050505050505050565b6000600019821415620001d357634e487b7160e01b81526011600452602481fd5b5060010190565b634e487b7160e01b600052604160045260246000fd5b610ee580620002006000396000f3fe608060405234801561001057600080fd5b50600436106100ea5760003560e01c8063609ff1bd1161008c578063a3ec138d11610066578063a3ec138d146101d9578063a43e6cca146101fc578063e2ba53f01461021e578063ed25286114610226576100ea565b8063609ff1bd146101ab57806365c93769146101b35780639e7b8d61146101c6576100ea565b80630d15fd77116100c85780630d15fd771461014e5780632e4176cf146101635780635c19a95c146101785780635daff9011461018b576100ea565b80630121b93f146100ef578063013cf08b1461010457806309eef43e1461012e575b600080fd5b6101026100fd366004610a63565b61023b565b005b610117610112366004610a63565b610385565b604051610125929190610b6a565b60405180910390f35b61014161013c366004610a19565b6103b3565b6040516101259190610b56565b6101566103d9565b6040516101259190610b61565b61016b6103df565b6040516101259190610a7b565b610102610186366004610a19565b6103ee565b61019e610199366004610a19565b6105bf565b6040516101259190610ab0565b610156610657565b6101416101c1366004610a19565b61070f565b6101026101d4366004610a19565b61072c565b6101ec6101e7366004610a19565b6107e6565b6040516101259493929190610e03565b61020f61020a366004610a3a565b61081a565b60405161012593929190610a8f565b610156610866565b61022e6108ce565b6040516101259190610b12565b33600090815260016020526040902080546102715760405162461bcd60e51b815260040161026890610b78565b60405180910390fd5b600181015460ff16156102965760405162461bcd60e51b815260040161026890610c1e565b6001818101805460ff19169091179055600280820183905581548154909190849081106102d357634e487b7160e01b600052603260045260246000fd5b906000526020600020906002020160010160008282546102f39190610e27565b909155505080546004805460009061030c908490610e27565b90915550503360008181526003602081815260408084208151606081018352958652858301978852429186019182528054600180820183559186529290942094519190920290930180546001600160a01b0319166001600160a01b03909416939093178355935190820155915160029092019190915550565b6002818154811061039557600080fd5b60009182526020909120600290910201805460019091015490915082565b6001600160a01b0381166000908152600160208190526040909120015460ff165b919050565b60045481565b6000546001600160a01b031681565b336000908152600160205260409020805461041b5760405162461bcd60e51b815260040161026890610be7565b600181015460ff16156104405760405162461bcd60e51b815260040161026890610c46565b6001600160a01b0382163314156104695760405162461bcd60e51b815260040161026890610dcc565b6001600160a01b0382811660009081526001602081905260409091200154610100900416156104de576001600160a01b0391821660009081526001602081905260409091200154610100900490911690338214156104d95760405162461bcd60e51b815260040161026890610cba565b610469565b6001600160a01b038216600090815260016020819052604090912080549091111561051b5760405162461bcd60e51b815260040161026890610ba6565b6001828101805460ff19168217610100600160a81b0319166101006001600160a01b0387160217905581015460ff16156105a05781546002828101548154811061057557634e487b7160e01b600052603260045260246000fd5b906000526020600020906002020160010160008282546105959190610e27565b909155506105ba9050565b8154815482906000906105b4908490610e27565b90915550505b505050565b6001600160a01b0381166000908152600360209081526040808320805482518185028101850190935280835260609492939192909184015b8282101561064c576000848152602090819020604080516060810182526003860290920180546001600160a01b03168352600180820154848601526002909101549183019190915290835290920191016105f7565b505050509050919050565b600080805b6002548110156106eb57816002828154811061068857634e487b7160e01b600052603260045260246000fd5b90600052602060002090600202016001015411156106d957600281815481106106c157634e487b7160e01b600052603260045260246000fd5b90600052602060002090600202016001015491508092505b806106e381610e7e565b91505061065c565b5060025461070b5760405162461bcd60e51b815260040161026890610d35565b5090565b6001600160a01b0316600090815260016020526040902054151590565b6000546001600160a01b031633146107565760405162461bcd60e51b815260040161026890610c72565b6001600160a01b0381166000908152600160208190526040909120015460ff16156107935760405162461bcd60e51b815260040161026890610d65565b6001600160a01b038116600090815260016020526040902054156107c95760405162461bcd60e51b815260040161026890610cf1565b6001600160a01b0316600090815260016020819052604090912055565b600160208190526000918252604090912080549181015460029091015460ff82169161010090046001600160a01b03169084565b6003602052816000526040600020818154811061083657600080fd5b60009182526020909120600390910201805460018201546002909201546001600160a01b03909116935090915083565b600080610871610657565b60025490915081106108955760405162461bcd60e51b815260040161026890610d9c565b600281815481106108b657634e487b7160e01b600052603260045260246000fd5b90600052602060002090600202016000015491505090565b60025460609060009067ffffffffffffffff8111156108fd57634e487b7160e01b600052604160045260246000fd5b604051908082528060200260200182016040528015610926578160200160208202803683370190505b50905060005b6002548110156109fc57600454156109bb576004546002828154811061096257634e487b7160e01b600052603260045260246000fd5b90600052602060002090600202016001015460646109809190610e5f565b61098a9190610e3f565b8282815181106109aa57634e487b7160e01b600052603260045260246000fd5b6020026020010181815250506109ea565b60008282815181106109dd57634e487b7160e01b600052603260045260246000fd5b6020026020010181815250505b806109f481610e7e565b91505061092c565b50905090565b80356001600160a01b03811681146103d457600080fd5b600060208284031215610a2a578081fd5b610a3382610a02565b9392505050565b60008060408385031215610a4c578081fd5b610a5583610a02565b946020939093013593505050565b600060208284031215610a74578081fd5b5035919050565b6001600160a01b0391909116815260200190565b6001600160a01b039390931683526020830191909152604082015260600190565b602080825282518282018190526000919060409081850190868401855b82811015610b0557815180516001600160a01b0316855286810151878601528501518585015260609093019290850190600101610acd565b5091979650505050505050565b6020808252825182820181905260009190848201906040850190845b81811015610b4a57835183529284019291840191600101610b2e565b50909695505050505050565b901515815260200190565b90815260200190565b918252602082015260400190565b602080825260149082015273486173206e6f20726967687420746f20766f746560601b604082015260600190565b60208082526021908201527f44656c6567617465206d757374206861766520766f74696e67207269676874736040820152601760f91b606082015260800190565b60208082526019908201527f596f752068617665206e6f20726967687420746f20766f746500000000000000604082015260600190565b6020808252600e908201526d20b63932b0b23c903b37ba32b21760911b604082015260600190565b6020808252601290820152712cb7ba9030b63932b0b23c903b37ba32b21760711b604082015260600190565b60208082526028908201527f4f6e6c79206368616972706572736f6e2063616e2067697665207269676874206040820152673a37903b37ba329760c11b606082015260800190565b60208082526019908201527f466f756e64206c6f6f7020696e2064656c65676174696f6e2e00000000000000604082015260600190565b60208082526024908201527f566f74657220616c7265616479206861732074686520726967687420746f207660408201526337ba329760e11b606082015260800190565b6020808252601690820152754e6f2070726f706f73616c7320617661696c61626c6560501b604082015260600190565b60208082526018908201527f54686520766f74657220616c726561647920766f7465642e0000000000000000604082015260600190565b602080825260169082015275092dcecc2d8d2c840e0e4dee0dee6c2d840d2dcc8caf60531b604082015260600190565b6020808252601e908201527f53656c662d64656c65676174696f6e20697320646973616c6c6f7765642e0000604082015260600190565b93845291151560208401526001600160a01b03166040830152606082015260800190565b60008219821115610e3a57610e3a610e99565b500190565b600082610e5a57634e487b7160e01b81526012600452602481fd5b500490565b6000816000190483118215151615610e7957610e79610e99565b500290565b6000600019821415610e9257610e92610e99565b5060010190565b634e487b7160e01b600052601160045260246000fdfea26469706673582212207e3b63914a7f22dc4e9de078634d37b8c234ca5201453da3e869091901ad471764736f6c63430008000033",
  "immutableReferences": {},
  "source": "// SPDX-License-Identifier: GPL-3.0\r\n\r\npragma solidity >=0.7.0 <0.9.0;\r\n\r\n/** \r\n * @title Voting\r\n * @dev Implements voting process along with vote delegation\r\n */\r\ncontract Voting {\r\n    struct Voter {\r\n        uint weight; // weight is accumulated by delegation\r\n        bool voted;  // if true, that person already voted\r\n        address delegate; // person delegated to\r\n        uint vote;   // index of the voted proposal\r\n    }\r\n\r\n    struct Proposal {\r\n        bytes32 name;   // short name (up to 32 bytes)\r\n        uint voteCount; // number of accumulated votes\r\n    }\r\n\r\n    struct VoteHistory {\r\n        address voterAddress; // address of the voter\r\n        uint proposal; // index of the voted proposal\r\n        uint timestamp; // time of the vote\r\n    }\r\n\r\n    address public chairperson;\r\n    mapping(address => Voter) public voters;\r\n    Proposal[] public proposals;\r\n    mapping(address => VoteHistory[]) public voteHistories; // Mapping to store voting history\r\n    uint public totalVotes; // Counter for total votes\r\n\r\n    /** \r\n     * @dev Create a new ballot to choose one of 'proposalNames'.\r\n     * @param proposalNames names of proposals\r\n     */\r\n    constructor(bytes32[] memory proposalNames) {\r\n        chairperson = msg.sender;\r\n        voters[chairperson].weight = 1;\r\n\r\n        for (uint i = 0; i < proposalNames.length; i++) {\r\n            proposals.push(Proposal({\r\n                name: proposalNames[i],\r\n                voteCount: 0\r\n            }));\r\n        }\r\n    }\r\n\r\n    function giveRightToVote(address voter) external {\r\n        require(msg.sender == chairperson, \"Only chairperson can give right to vote.\");\r\n        require(!voters[voter].voted, \"The voter already voted.\");\r\n        require(voters[voter].weight == 0, \"Voter already has the right to vote.\");\r\n        voters[voter].weight = 1;\r\n    }\r\n\r\n    function delegate(address to) external {\r\n        Voter storage sender = voters[msg.sender];\r\n        require(sender.weight != 0, \"You have no right to vote\");\r\n        require(!sender.voted, \"You already voted.\");\r\n        require(to != msg.sender, \"Self-delegation is disallowed.\");\r\n\r\n        while (voters[to].delegate != address(0)) {\r\n            to = voters[to].delegate;\r\n            require(to != msg.sender, \"Found loop in delegation.\");\r\n        }\r\n\r\n        Voter storage delegate_ = voters[to];\r\n        require(delegate_.weight >= 1, \"Delegate must have voting rights.\");\r\n\r\n        sender.voted = true;\r\n        sender.delegate = to;\r\n\r\n        if (delegate_.voted) {\r\n            proposals[delegate_.vote].voteCount += sender.weight;\r\n        } else {\r\n            delegate_.weight += sender.weight;\r\n        }\r\n    }\r\n\r\n    function vote(uint proposal) external {\r\n        Voter storage sender = voters[msg.sender];\r\n        require(sender.weight != 0, \"Has no right to vote\");\r\n        require(!sender.voted, \"Already voted.\");\r\n        sender.voted = true;\r\n        sender.vote = proposal;\r\n\r\n        proposals[proposal].voteCount += sender.weight;\r\n        totalVotes += sender.weight; // Increment total votes\r\n\r\n        // Store the voting history\r\n        voteHistories[msg.sender].push(VoteHistory({\r\n            voterAddress: msg.sender,\r\n            proposal: proposal,\r\n            timestamp: block.timestamp // Store the current block timestamp\r\n        }));\r\n    }\r\n\r\n    function winningProposal() public view returns (uint winningProposal_) {\r\n        uint winningVoteCount = 0;\r\n        for (uint p = 0; p < proposals.length; p++) {\r\n            if (proposals[p].voteCount > winningVoteCount) {\r\n                winningVoteCount = proposals[p].voteCount;\r\n                winningProposal_ = p;\r\n            }\r\n        }\r\n        // Ensure that a valid proposal index is returned\r\n        require(proposals.length > 0, \"No proposals available\");\r\n    }\r\n\r\n    function winnerName() external view returns (bytes32 winnerName_) {\r\n        uint winningProposalIndex = winningProposal(); // Get the winning proposal index\r\n        require(winningProposalIndex < proposals.length, \"Invalid proposal index\"); // Ensure the index is valid\r\n        winnerName_ = proposals[winningProposalIndex].name; // Access the name of the winning proposal\r\n    }\r\n\r\n    function hasRightToVote(address voter) public view returns (bool) {\r\n        return voters[voter].weight > 0;\r\n    }\r\n\r\n    function hasVoted(address voter) public view returns (bool) {\r\n        return voters[voter].voted;\r\n    }\r\n\r\n    // Function to get voting history for a specific voter\r\n    function getVotingHistory(address voter) external view returns (VoteHistory[] memory) {\r\n        return voteHistories[voter];\r\n    }\r\n\r\n    // Function to get the percentage of votes for each proposal\r\n    function getVotePercentages() external view returns (uint[] memory) {\r\n        uint[] memory percentages = new uint[](proposals.length);\r\n        for (uint i = 0; i < proposals.length; i++) {\r\n            if (totalVotes > 0) {\r\n                percentages[i] = (proposals[i].voteCount * 100) / totalVotes; // Calculate percentage\r\n            } else {\r\n                percentages[i] = 0; // No votes cast\r\n            }\r\n        }\r\n        return percentages;\r\n    }\r\n}\r\n",
  "sourcePath": "D:\\Tugas Iqbal\\Unand\\Neo\\Project\\hackathon-2024\\the-suaraku-backend\\contracts\\Voting.sol",
  "compiler": {
    "name": "solc",
    "version": "0.8.0+commit.c7dfd78e.Emscripten.clang"
  },
  "schemaVersion": "3.4.16",
  "updatedAt": "2024-12-14T23:12:55.021Z",
  "devdoc": {
    "details": "Implements voting process along with vote delegation",
    "kind": "dev",
    "methods": {
      "constructor": {
        "details": "Create a new ballot to choose one of 'proposalNames'.",
        "params": {
          "proposalNames": "names of proposals"
        }
      }
    },
    "title": "Voting",
    "version": 1
  },
  "userdoc": {
    "kind": "user",
    "methods": {},
    "version": 1
  }
}