{
  "contractName": "Voting",
  "abi": [
    {
      "inputs": [
        {
          "internalType": "bytes32[]",
          "name": "proposalNames",
          "type": "bytes32[]"
        }
      ],
      "stateMutability": "nonpayable",
      "type": "constructor"
    },
    {
      "inputs": [],
      "name": "chairperson",
      "outputs": [
        {
          "internalType": "address",
          "name": "",
          "type": "address"
        }
      ],
      "stateMutability": "view",
      "type": "function"
    },
    {
      "inputs": [
        {
          "internalType": "uint256",
          "name": "",
          "type": "uint256"
        }
      ],
      "name": "proposals",
      "outputs": [
        {
          "internalType": "bytes32",
          "name": "name",
          "type": "bytes32"
        },
        {
          "internalType": "uint256",
          "name": "voteCount",
          "type": "uint256"
        }
      ],
      "stateMutability": "view",
      "type": "function"
    },
    {
      "inputs": [
        {
          "internalType": "address",
          "name": "",
          "type": "address"
        }
      ],
      "name": "voters",
      "outputs": [
        {
          "internalType": "uint256",
          "name": "weight",
          "type": "uint256"
        },
        {
          "internalType": "bool",
          "name": "voted",
          "type": "bool"
        },
        {
          "internalType": "address",
          "name": "delegate",
          "type": "address"
        },
        {
          "internalType": "uint256",
          "name": "vote",
          "type": "uint256"
        }
      ],
      "stateMutability": "view",
      "type": "function"
    },
    {
      "inputs": [
        {
          "internalType": "address",
          "name": "voter",
          "type": "address"
        }
      ],
      "name": "giveRightToVote",
      "outputs": [],
      "stateMutability": "nonpayable",
      "type": "function"
    },
    {
      "inputs": [
        {
          "internalType": "address",
          "name": "to",
          "type": "address"
        }
      ],
      "name": "delegate",
      "outputs": [],
      "stateMutability": "nonpayable",
      "type": "function"
    },
    {
      "inputs": [
        {
          "internalType": "uint256",
          "name": "proposal",
          "type": "uint256"
        }
      ],
      "name": "vote",
      "outputs": [],
      "stateMutability": "nonpayable",
      "type": "function"
    },
    {
      "inputs": [],
      "name": "winningProposal",
      "outputs": [
        {
          "internalType": "uint256",
          "name": "winningProposal_",
          "type": "uint256"
        }
      ],
      "stateMutability": "view",
      "type": "function"
    },
    {
      "inputs": [],
      "name": "winnerName",
      "outputs": [
        {
          "internalType": "bytes32",
          "name": "winnerName_",
          "type": "bytes32"
        }
      ],
      "stateMutability": "view",
      "type": "function"
    },
    {
      "inputs": [
        {
          "internalType": "address",
          "name": "voter",
          "type": "address"
        }
      ],
      "name": "hasRightToVote",
      "outputs": [
        {
          "internalType": "bool",
          "name": "",
          "type": "bool"
        }
      ],
      "stateMutability": "view",
      "type": "function"
    }
  ],
  "bytecode": "0x608060405234801561001057600080fd5b50604051610bfd380380610bfd83398101604081905261002f916100e2565b600080546001600160a01b03191633178082556001600160a01b031681526001602081905260408220555b81518110156100db576002604051806040016040528084848151811061009057634e487b7160e01b600052603260045260246000fd5b602090810291909101810151825260009181018290528354600181810186559483529181902083516002909302019182559190910151910155806100d38161019b565b91505061005a565b50506101d8565b600060208083850312156100f4578182fd5b82516001600160401b038082111561010a578384fd5b818501915085601f83011261011d578384fd5b81518181111561012f5761012f6101c2565b8381026040518582820101818110858211171561014e5761014e6101c2565b604052828152858101935084860182860187018a101561016c578788fd5b8795505b8386101561018e578051855260019590950194938601938601610170565b5098975050505050505050565b60006000198214156101bb57634e487b7160e01b81526011600452602481fd5b5060010190565b634e487b7160e01b600052604160045260246000fd5b610a16806101e76000396000f3fe608060405234801561001057600080fd5b50600436106100935760003560e01c8063609ff1bd11610066578063609ff1bd146100ff57806365c93769146101145780639e7b8d6114610134578063a3ec138d14610147578063e2ba53f01461016a57610093565b80630121b93f14610098578063013cf08b146100ad5780632e4176cf146100d75780635c19a95c146100ec575b600080fd5b6100ab6100a636600461069a565b610172565b005b6100c06100bb36600461069a565b610233565b6040516100ce9291906106da565b60405180910390f35b6100df610261565b6040516100ce91906106b2565b6100ab6100fa36600461066c565b610270565b610107610441565b6040516100ce91906106d1565b61012761012236600461066c565b6104f9565b6040516100ce91906106c6565b6100ab61014236600461066c565b610516565b61015a61015536600461066c565b6105d0565b6040516100ce9493929190610973565b610107610604565b33600090815260016020526040902080546101a85760405162461bcd60e51b815260040161019f906106e8565b60405180910390fd5b600181015460ff16156101cd5760405162461bcd60e51b815260040161019f9061078e565b6001818101805460ff191690911790556002808201839055815481549091908490811061020a57634e487b7160e01b600052603260045260246000fd5b9060005260206000209060020201600101600082825461022a9190610997565b90915550505050565b6002818154811061024357600080fd5b60009182526020909120600290910201805460019091015490915082565b6000546001600160a01b031681565b336000908152600160205260409020805461029d5760405162461bcd60e51b815260040161019f90610757565b600181015460ff16156102c25760405162461bcd60e51b815260040161019f906107b6565b6001600160a01b0382163314156102eb5760405162461bcd60e51b815260040161019f9061093c565b6001600160a01b038281166000908152600160208190526040909120015461010090041615610360576001600160a01b03918216600090815260016020819052604090912001546101009004909116903382141561035b5760405162461bcd60e51b815260040161019f9061082a565b6102eb565b6001600160a01b038216600090815260016020819052604090912080549091111561039d5760405162461bcd60e51b815260040161019f90610716565b6001828101805460ff19168217610100600160a81b0319166101006001600160a01b0387160217905581015460ff1615610422578154600282810154815481106103f757634e487b7160e01b600052603260045260246000fd5b906000526020600020906002020160010160008282546104179190610997565b9091555061043c9050565b815481548290600090610436908490610997565b90915550505b505050565b600080805b6002548110156104d557816002828154811061047257634e487b7160e01b600052603260045260246000fd5b90600052602060002090600202016001015411156104c357600281815481106104ab57634e487b7160e01b600052603260045260246000fd5b90600052602060002090600202016001015491508092505b806104cd816109af565b915050610446565b506002546104f55760405162461bcd60e51b815260040161019f906108a5565b5090565b6001600160a01b0316600090815260016020526040902054151590565b6000546001600160a01b031633146105405760405162461bcd60e51b815260040161019f906107e2565b6001600160a01b0381166000908152600160208190526040909120015460ff161561057d5760405162461bcd60e51b815260040161019f906108d5565b6001600160a01b038116600090815260016020526040902054156105b35760405162461bcd60e51b815260040161019f90610861565b6001600160a01b0316600090815260016020819052604090912055565b600160208190526000918252604090912080549181015460029091015460ff82169161010090046001600160a01b03169084565b60008061060f610441565b60025490915081106106335760405162461bcd60e51b815260040161019f9061090c565b6002818154811061065457634e487b7160e01b600052603260045260246000fd5b90600052602060002090600202016000015491505090565b60006020828403121561067d578081fd5b81356001600160a01b0381168114610693578182fd5b9392505050565b6000602082840312156106ab578081fd5b5035919050565b6001600160a01b0391909116815260200190565b901515815260200190565b90815260200190565b918252602082015260400190565b602080825260149082015273486173206e6f20726967687420746f20766f746560601b604082015260600190565b60208082526021908201527f44656c6567617465206d757374206861766520766f74696e67207269676874736040820152601760f91b606082015260800190565b60208082526019908201527f596f752068617665206e6f20726967687420746f20766f746500000000000000604082015260600190565b6020808252600e908201526d20b63932b0b23c903b37ba32b21760911b604082015260600190565b6020808252601290820152712cb7ba9030b63932b0b23c903b37ba32b21760711b604082015260600190565b60208082526028908201527f4f6e6c79206368616972706572736f6e2063616e2067697665207269676874206040820152673a37903b37ba329760c11b606082015260800190565b60208082526019908201527f466f756e64206c6f6f7020696e2064656c65676174696f6e2e00000000000000604082015260600190565b60208082526024908201527f566f74657220616c7265616479206861732074686520726967687420746f207660408201526337ba329760e11b606082015260800190565b6020808252601690820152754e6f2070726f706f73616c7320617661696c61626c6560501b604082015260600190565b60208082526018908201527f54686520766f74657220616c726561647920766f7465642e0000000000000000604082015260600190565b602080825260169082015275092dcecc2d8d2c840e0e4dee0dee6c2d840d2dcc8caf60531b604082015260600190565b6020808252601e908201527f53656c662d64656c65676174696f6e20697320646973616c6c6f7765642e0000604082015260600190565b93845291151560208401526001600160a01b03166040830152606082015260800190565b600082198211156109aa576109aa6109ca565b500190565b60006000198214156109c3576109c36109ca565b5060010190565b634e487b7160e01b600052601160045260246000fdfea264697066735822122035dda486844848b485f95a83c47f25e95ac26e2ba0c99a905c17a98e8d24425164736f6c63430008000033",
  "immutableReferences": {},
  "source": "// SPDX-License-Identifier: GPL-3.0\r\n\r\npragma solidity >=0.7.0 <0.9.0;\r\n\r\n/** \r\n * @title Voting\r\n * @dev Implements voting process along with vote delegation\r\n */\r\ncontract Voting {\r\n    struct Voter {\r\n        uint weight; // weight is accumulated by delegation\r\n        bool voted;  // if true, that person already voted\r\n        address delegate; // person delegated to\r\n        uint vote;   // index of the voted proposal\r\n    }\r\n\r\n    struct Proposal {\r\n        bytes32 name;   // short name (up to 32 bytes)\r\n        uint voteCount; // number of accumulated votes\r\n    }\r\n\r\n    address public chairperson;\r\n    mapping(address => Voter) public voters;\r\n    Proposal[] public proposals;\r\n\r\n    /** \r\n     * @dev Create a new ballot to choose one of 'proposalNames'.\r\n     * @param proposalNames names of proposals\r\n     */\r\n    constructor(bytes32[] memory proposalNames) {\r\n        chairperson = msg.sender;\r\n        voters[chairperson].weight = 1;\r\n\r\n        for (uint i = 0; i < proposalNames.length; i++) {\r\n            proposals.push(Proposal({\r\n                name: proposalNames[i],\r\n                voteCount: 0\r\n            }));\r\n        }\r\n    }\r\n\r\n    function giveRightToVote(address voter) external {\r\n        require(msg.sender == chairperson, \"Only chairperson can give right to vote.\");\r\n        require(!voters[voter].voted, \"The voter already voted.\");\r\n        require(voters[voter].weight == 0, \"Voter already has the right to vote.\");\r\n        voters[voter].weight = 1;\r\n    }\r\n\r\n    function delegate(address to) external {\r\n        Voter storage sender = voters[msg.sender];\r\n        require(sender.weight != 0, \"You have no right to vote\");\r\n        require(!sender.voted, \"You already voted.\");\r\n        require(to != msg.sender, \"Self-delegation is disallowed.\");\r\n\r\n        while (voters[to].delegate != address(0)) {\r\n            to = voters[to].delegate;\r\n            require(to != msg.sender, \"Found loop in delegation.\");\r\n        }\r\n\r\n        Voter storage delegate_ = voters[to];\r\n        require(delegate_.weight >= 1, \"Delegate must have voting rights.\");\r\n\r\n        sender.voted = true;\r\n        sender.delegate = to;\r\n\r\n        if (delegate_.voted) {\r\n            proposals[delegate_.vote].voteCount += sender.weight;\r\n        } else {\r\n            delegate_.weight += sender.weight;\r\n        }\r\n    }\r\n\r\n    function vote(uint proposal) external {\r\n        Voter storage sender = voters[msg.sender];\r\n        require(sender.weight != 0, \"Has no right to vote\");\r\n        require(!sender.voted, \"Already voted.\");\r\n        sender.voted = true;\r\n        sender.vote = proposal;\r\n\r\n        proposals[proposal].voteCount += sender.weight;\r\n    }\r\n\r\n    function winningProposal() public view returns (uint winningProposal_) {\r\n        uint winningVoteCount = 0;\r\n        for (uint p = 0; p < proposals.length; p++) {\r\n            if (proposals[p].voteCount > winningVoteCount) {\r\n                winningVoteCount = proposals[p].voteCount;\r\n                winningProposal_ = p;\r\n            }\r\n        }\r\n        // Ensure that a valid proposal index is returned\r\n        require(proposals.length > 0, \"No proposals available\");\r\n    }\r\n\r\n    function winnerName() external view returns (bytes32 winnerName_) {\r\n        uint winningProposalIndex = winningProposal(); // Get the winning proposal index\r\n        require(winningProposalIndex < proposals.length, \"Invalid proposal index\"); // Ensure the index is valid\r\n        winnerName_ = proposals[winningProposalIndex].name; // Access the name of the winning proposal\r\n    }\r\n\r\n    function hasRightToVote(address voter) public view returns (bool) {\r\n        return voters[voter].weight > 0;\r\n    }\r\n}\r\n",
  "sourcePath": "D:\\Tugas Iqbal\\Unand\\Neo\\Project\\hackathon-2024\\the-suaraku-backend\\contracts\\Voting.sol",
  "compiler": {
    "name": "solc",
    "version": "0.8.0+commit.c7dfd78e.Emscripten.clang"
  },
  "schemaVersion": "3.4.16",
  "updatedAt": "2024-12-14T19:42:50.554Z",
  "devdoc": {
    "details": "Implements voting process along with vote delegation",
    "kind": "dev",
    "methods": {
      "constructor": {
        "details": "Create a new ballot to choose one of 'proposalNames'.",
        "params": {
          "proposalNames": "names of proposals"
        }
      }
    },
    "title": "Voting",
    "version": 1
  },
  "userdoc": {
    "kind": "user",
    "methods": {},
    "version": 1
  }
}